:020000040000FA
:020000040800F2
:10700000883C0020515A03087511030877110308C2
:10701000791103087B1103087D11030800000000AB
:1070200000000000000000000000000093210208A2
:107030007F110308000000004D21020839BC01083F
:10704000E1610308E5610308E961030881110308B0
:10705000ED610308F1610308F5610308F9610308B4
:10706000FD61030801620308056203080962030861
:107070000D62030811620308156203081962030810
:107080001D620308216203082562030829620308C0
:107090002D62030831620308356203083962030870
:1070A0003D6203088B11030841620308456203082F
:1070B000496203084D6203085162030855620308E0
:1070C000596203085D620308616203086562030890
:1070D000696203086D620308716203087562030840
:1070E000796203087D6203088162030800000000E2
:1070F0000000000000000000000000000000000090
:107100000000000000000000856203088962030897
:107110008D6203089162030895620308996203086F
:107120009D620308A1620308A5620308A96203081F
:10713000AD620308951103089F110308B1620308AB
:10714000B5620308B9620308BD620308C16203089F
:1071500038B504000D002000C0B200282BD0022852
:1071600039D029D3042854D044D306286FD05FD314
:10717000082800F08A8079D30A2800F0A480C0F0A3
:1071800093800C2800F0BD80C0F0AC800E2800F089
:10719000D680C0F0C580102800F0EF80C0F0DE80FF
:1071A000122800F00881C0F0F780142800F0218137
:1071B000C0F010812BE12AE1DFF8000B90F871128A
:1071C000009190F8703290F86F22DFF8F41A2800DE
:1071D00006F010FA1BE1DFF8E40A90F87112009152
:1071E00090F8703290F86F22DFF8D81A280006F075
:1071F00001FA0CE1DFF8C40A90F87112009190F8DE
:10720000703290F86F22DFF80C1B280006F0F2F9BC
:10721000FDE0DFF8A80A90F87112009190F8703242
:1072200090F86F22DFF8F01A280006F0E3F9EEE09C
:10723000DFF8880A90F87112009190F8703290F897
:107240006F22DFF8D81A280006F0D4F9DFE0DFF863
:107250006C0A90F87112009190F8703290F86F22D9
:10726000DFF8BC1A280006F0C5F9D0E0DFF84C0AB8
:1072700090F87112009190F8703290F86F22DFF858
:10728000A41A280006F0B6F9C1E0DFF8300A90F839
:107290007112009190F8703290F86F22DFF8881A1E
:1072A000280006F0A7F9B2E0DFF8100A90F8711292
:1072B000009190F8703290F86F22DFF8701A280071
:1072C00006F098F9A3E0DFF8F40990F87112009144
:1072D00090F8703290F86F22DFF8541A280006F008
:1072E00089F994E0DFF8D40990F87112009190F8D0
:1072F000703290F86F22DFF83C1A280006F07AF915
:1073000085E0DFF8B80990F87112009190F87032BA
:1073100090F86F22DFF8201A280006F06BF976E06B
:10732000DFF8980990F87112009190F8703290F897
:107330006F22DFF8081A280006F05CF967E0DFF832
:107340007C0990F87112009190F8703290F86F22D9
:10735000DFF8EC19280006F04DF958E0DFF85C0979
:1073600090F87112009190F8703290F86F22DFF867
:10737000D419280006F03EF949E0DFF8400990F8FA
:107380007112009190F8703290F86F22DFF8B819FE
:10739000280006F02FF93AE0DFF8200990F8711282
:1073A000009190F8703290F86F22DFF8A019280051
:1073B00006F020F92BE0DFF8040990F87112009133
:1073C00090F8703290F86F22DFF88419280006F0E8
:1073D00011F91CE0DFF8E40890F87112009190F8C0
:1073E000703290F86F22DFF86C19280006F002F96D
:1073F0000DE0DFF8C80890F87112009190F8703233
:1074000090F86F22DFF88C1B280006F0F3F831BDEE
:1074100038B504000D002000C0B200282BD002288F
:1074200039D029D3042854D044D306286FD05FD351
:10743000082800F08A8079D30A2800F0A480C0F0E0
:1074400093800C2800F0BD80C0F0AC800E2800F0C6
:10745000D680C0F0C580102800F0EF80C0F0DE803C
:10746000122800F00881C0F0F780142800F0218174
:10747000C0F010812BE12AE1DFF8400890F871128A
:10748000009190F8703290F86F22DFF80C1B280002
:1074900006F0B0F81BE1DFF8240890F871120091B3
:1074A00090F8703290F86F22DFF8F01A280006F09A
:1074B000A1F80CE1DFF8040890F87112009190F83F
:1074C000703290F86F22DFF8D81A280006F092F890
:1074D000FDE0DFF8E80790F87112009190F8703243
:1074E00090F86F22DFF8BC1A280006F083F8EEE06F
:1074F000DFF8C80790F87112009190F8703290F898
:107500006F22DFF8A41A280006F074F8DFE0DFF835
:10751000AC0790F87112009190F8703290F86F22D9
:10752000DFF8881A280006F065F8D0E0DFF88C074D
:1075300090F87112009190F8703290F86F22DFF895
:10754000701A280006F056F8C1E0DFF8700790F8CE
:107550007112009190F8703290F86F22DFF8541A8F
:10756000280006F047F8B2E0DFF8500790F87112F3
:10757000009190F8703290F86F22DFF83C1A2800E2
:1075800006F038F8A3E0DFF8340790F871120091A4
:1075900090F8703290F86F22DFF8201A280006F079
:1075A00029F894E0DFF8140790F87112009190F830
:1075B000703290F86F22DFF8081A280006F01AF8E7
:1075C00085E0DFF8F80690F87112009190F87032BB
:1075D00090F86F22DFF8EC19280006F00BF876E03F
:1075E000DFF8D80690F87112009190F8703290F898
:1075F0006F22DFF8D419280005F0FCFF67E0DFF800
:10760000BC0690F87112009190F8703290F86F22D9
:10761000DFF8F01B280005F0EDFF58E0DFF89C06CE
:1076200090F87112009190F8703290F86F22DFF8A4
:10763000D81B280005F0DEFF49E0DFF8800690F84F
:107640007112009190F8703290F86F22DFF8BC1B35
:10765000280005F0CFFF3AE0DFF8600690F87112DD
:10766000009190F8703290F86F22DFF8A41B280088
:1076700005F0C0FF2BE0DFF8440690F8711200918E
:1076800090F8703290F86F22DFF8881B280005F020
:10769000B1FF1CE0DFF8240690F87112009190F819
:1076A000703290F86F22DFF8701B280005F0A2FFFF
:1076B0000DE0DFF8080690F87112009190F8703232
:1076C00090F86F22DFF8841C280005F093FF31BD8D
:1076D0002DE9F8430400C8250026270032002900C0
:1076E000380005F0A7FF3A27DFF8C88BA1463A001B
:1076F0004146484605F0EEFFDFF8BC1B200006F0CF
:107700003CF8DFF8301D200006F037F8200006F0C6
:1077100043F8BDE8F28370B504000D002A00DFF8DD
:10772000181D200005F066FF300080B270BD70B5F6
:1077300004000D002A00DFF8041D200005F05AFFA8
:10774000300080B270BD2DE9F84304000D002E001A
:10775000F6B2062046433700BFB25FF00008A146EC
:1077600042463900484605F065FF2800C0B20028AF
:1077700006D0DFF8DC1B200005F0FFFF6D1EF4E7EC
:10778000300080B2BDE8F2832DE9F84304000D001B
:107790002800C0B280B286003700BFB25FF0000898
:1077A000A14642463900484605F044FF2800C0B2D1
:1077B000002806D0DFF8881C200005F0DEFF6D1ED3
:1077C000F4E7300080B2BDE8F2832DE9F84FD4B081
:1077D00004000D0016001F00DDF878814FF4807959
:1077E0005FF0000A0DF1500B52464946584605F02D
:1077F00021FF3800C0B2002806D0DFF8541B14A8BF
:1078000005F0BBFF7F1EF4E798F80300019098F89D
:107810000200009098F8013098F80020DFF8241C4E
:1078200004A805F0E7FE029604A8019014A80090B1
:107830002B003200DFF8101C200005F0DBFEBDF845
:107840000C0055B0BDE8F08FFEB504000D00160029
:107850001F003000C0B2019000972B003200D2B25E
:10786000DFF8E81B200005F0C5FE0020FEBDFEB5D8
:1078700004000D0016001F003000C0B201900097F8
:107880002B003200D2B2DFF8C81B200005F0B2FE98
:107890000020FEBD2DE9FF4104000D0016001F0071
:1078A00002970B9801900A9800903300DBB22A00EF
:1078B000DFF8A01B200005F09DFE404680B204B01A
:1078C000BDE8F081F8B504000D0016002B00320071
:1078D000DFF88C1B200005F08DFE380080B2F2BD71
:1078E000F8B504000D0016001F00009733002A00B1
:1078F000DFF8701B200005F07DFE0020F2BD2DE9B1
:10790000FC4105000E0017009846089C2000C0B2FC
:10791000002808D1009743463200DFF83C1B2800BE
:1079200005F068FE07E0009743463200DFF8381B99
:10793000280005F05FFE0020BDE8F68170B5040068
:107940000D0016003000C0B2012806D12A00DFF871
:107950000C1B200005F04EFE05E02A00DFF80C1B92
:10796000200005F047FE70BD2DE9FE4305000E0026
:1079700017009846DDF828900B9C2000C0B2002824
:1079800009D1CDF80480009733004A46DFF8E01AA9
:10799000280005F02FFE2000C0B2012809D1CDF843
:1079A0000480009733004A46DFF8C81A280005F023
:1079B00021FE2000C0B2022809D1CDF80480009732
:1079C00033004A46DFF8B01A280005F013FEBDE880
:1079D000FE8370B504000D0016003000C0B201280F
:1079E00006D12A00DFF8941A200005F003FE68E0B3
:1079F0003000C0B2022806D12A00DFF8841A200025
:107A000005F0F8FD5DE03000C0B2032806D12A0081
:107A1000DFF8701A200005F0EDFD52E03000C0B232
:107A2000042806D12A00DFF8601A200005F0E2FDE4
:107A300047E03000C0B2052806D12A00DFF84C1A12
:107A4000200005F0D7FD3CE03000C0B2062806D18A
:107A50002A00DFF83C1A200005F0CCFD31E03000B0
:107A6000C0B2002806D12A00DFF8281A200005F04D
:107A7000C1FD26E03000C0B2072806D12A00DFF899
:107A8000181A200005F0B6FD1BE03000C0B208282F
:107A900006D12A00DFF8041A200005F0ABFD10E043
:107AA0003000C0B2092806D12A00DFF8F4192000FE
:107AB00005F0A0FD05E02A00DFF8C019200005F060
:107AC00099FD70BDF8B504000D0016001F00009769
:107AD00033002A00DFF8341C200005F08BFD002065
:107AE000F2BDF8B504000D00160033002A00DFF8DF
:107AF000201C200005F07EFD380080B2F2BD2DE98B
:107B0000F04704000D0016003200DFF89819280035
:107B100005F070FD2900200005F02FFEDFF88889B0
:107B2000DFF888994A464146280005F063FD2900A0
:107B3000200005F022FEDFF878A9DFF87829514609
:107B4000280005F057FD2900200005F016FE4A46E2
:107B50004146280005F04EFD2900200005F00DFEED
:107B6000DFF854295146280005F044FD2900200083
:107B700005F003FE4A464146280005F03BFD29007A
:107B8000200005F0FAFDDFF834295146280005F001
:107B900031FD2900200005F0F0FDDFF82429DFF891
:107BA000741B280005F026FD2900200005F0E5FDE6
:107BB000380080B2BDE8F0872DE9F04704000D00E1
:107BC00016003200DFF8DC18280005F013FD29004C
:107BD000200005F0D2FDDFF8D088DFF8D0984A46C3
:107BE0004146280005F006FD2900200005F0C5FDEE
:107BF000DFF8BCA8DFF8202B5146280005F0FAFC7E
:107C00002900200005F0B9FD4A464146280005F04C
:107C1000F1FC2900200005F0B0FDDFF8042B5146EF
:107C2000280005F0E7FC2900200005F0A6FD4A46E3
:107C30004146280005F0DEFC2900200005F09DFDEE
:107C4000DFF8E42A5146280005F0D4FC2900200082
:107C500005F093FDDFF86828DFF8B81A280005F072
:107C6000C9FC2900200005F088FD380080B2BDE87D
:107C7000F0870200DFF8B40A002101700021417092
:107C8000002181701100C9B20A2391FBF3F1303158
:107C9000017001783A2901DB392101700178B1F1D5
:107CA00030030A2101FB13233033437041783A2912
:107CB00001DB39214170002181707047D80000201C
:107CC000540B0308A00003080200DFF8640A002137
:107CD000017000214170002181701100C9B20A2396
:107CE00091FBF3F13031017001783A2901DB392140
:107CF00001700178B1F130030A2101FB1323303305
:107D0000437041783A2901DB3921417000218170AB
:107D1000704700009C010308F4000308E4ED02082A
:107D2000EC0103083C02030858EE0208E4050308CE
:107D30008C02030864F20208D8080308200903082B
:107D400080F80208B40E0308980B0308E0FB020851
:107D500068090308DC0203082DE9F64FC5B00500E9
:107D60000E001F00DDF84481529C469ADFF8CC19C2
:107D7000300005F03FFC3100280005F0FEFC5FF00C
:107D800019092000C0B209FB00F04044007BFFF756
:107D90009BFF83462000C0B209FB00F04044407BBB
:107DA000FFF767FFDFF898A9CDF80CB00290032029
:107DB00001902000C0B2009000233A00514606A86E
:107DC00005F018FC06AADFF87C19300005F012FC5B
:107DD0003100280005F0D1FC2000C0B209FB00F002
:107DE0004044807BFFF770FF83462000C0B209FB50
:107DF00000F04044C07BFFF73CFFCDF80CB0029090
:107E0000032001902000C0B2009001233A005146A7
:107E100006A805F0EFFBDFF830A906AA51463000AE
:107E200005F0E8FB3100280005F0A7FC2000C0B2F7
:107E300009FB00F04044007CFFF746FF059020005E
:107E4000C0B209FB00F04044407CFFF712FFDFF8AE
:107E5000FCB8059903910290042001902000C0B263
:107E6000009000233A00594606A805F0C3FB06AA75
:107E7000DFF8D018300005F0BDFB3100280005F018
:107E80007CFC2000C0B209FB00F04044807CFFF77E
:107E90001BFF05902000C0B209FB00F04044C07CED
:107EA000FFF7E7FE0599039102900420019020005E
:107EB000C0B2009001233A00594606A805F09AFB8B
:107EC00006AA5146300005F095FB3100280005F068
:107ED00054FC2000C0B209FB00F04044007DFFF7D5
:107EE000F3FE05902000C0B209FB00F04044407D45
:107EF000FFF7BFFE05990391029005200190200035
:107F0000C0B2009000233A00594606A805F072FB63
:107F100006AADFF83018300005F06CFB31002800AD
:107F200005F02BFC2000C0B209FB00F04044807D2E
:107F3000FFF7CAFE05902000C0B209FB00F908EB6C
:107F40000900C07DFFF795FE059903910290052079
:107F500001902000C0B2009001233A00594606A8C3
:107F600005F048FB06AA5146300005F043FB3100FE
:107F7000280005F002FC509ADFF8881B300005F05D
:107F800039FB3100280005F0F8FBBDF8100047B0C0
:107F9000BDE8F08F300603080C26030838260308D6
:107FA00084140308F40E0308B0090308081B03082F
:107FB0003C1B03087C06030864260308902603087C
:107FC000DC0B0308E42C0308482003082DE9F64FD6
:107FD000C5B005000E001F00DDF84481529C469A92
:107FE000DFF85817300005F005FB3100280005F0D8
:107FF000C4FB5FF019092000C0B209FB00F018F8BB
:108000000000FFF761FE83462000C0B209FB00F0CC
:1080100040444078FFF72DFEDFF830A7CDF80CB0D4
:108020000290002001902000C0B2009000233A008E
:10803000514606A805F0DEFA06AADFF80817300058
:1080400005F0D8FA3100280005F097FB2000C0B2F7
:1080500009FB00F040448078FFF736FE834620009D
:10806000C0B209FB00F04044C078FFF702FECDF833
:108070000CB00290002001902000C0B200900123BB
:108080003A00514606A805F0B5FADFF8BCB606AAD4
:108090005946300005F0AEFA3100280005F06DFBBE
:1080A0002000C0B209FB00F040440079FFF70CFE4D
:1080B00005902000C0B209FB00F040444079FFF772
:1080C000D8FD059903910290012001902000C0B2D3
:1080D000009000233A00514606A805F08BFA06AA44
:1080E000DFF86016300005F085FA3100280005F051
:1080F00044FB2000C0B209FB00F040448079FFF748
:10810000E3FD05902000C0B209FB00F04044C079B7
:10811000FFF7AFFD05990391029001200190200027
:10812000C0B2009001233A00514606A805F062FA59
:1081300006AA5946300005F05DFA3100280005F026
:108140001CFB2000C0B209FB00F04044007AFFF79E
:10815000BBFD05902000C0B209FB00F04044407A0E
:10816000FFF787FD059903910290022001902000FE
:10817000C0B2009000233A00514606A805F03AFA32
:1081800006AADFF8C015300005F034FA31002800E7
:1081900005F0F3FA2000C0B209FB00F04044807AF9
:1081A000FFF792FD05902000C0B209FB00F908EB33
:1081B0000900C07AFFF75DFD059903910290022046
:1081C00001902000C0B2009001233A00514606A859
:1081D00005F010FA06AA5946300005F00BFA3100F6
:1081E000280005F0CAFA509ADFF81819300005F097
:1081F00001FA3100280005F0C0FABDF8100047B0C0
:10820000BDE8F08FBC1403080C2D03087820030888
:10821000200C030858370308342D03082DE9F843D0
:10822000D0B004000D0016001F00DDF860814FF48F
:10823000967100220DF11409484605F0FBF914214E
:108240000022E946484605F0F5F93200DFF8BC188F
:10825000280005F0CFF92900200005F08EFA5FF024
:1082600000094846C0B205281CDA4B46DBB23A008A
:10827000DFF89C18684605F0BDF94846C0B2404496
:10828000827F694605A8FFF7A4FB05AADFF88418DA
:10829000280005F0AFF92900200005F06EFA19F169
:1082A0000109DEE7200005F077FA80B251B0BDE8A1
:1082B000F083000040000020B45A03082DE9F04785
:1082C000D0B004000D0016001F00DDF860814FF4EF
:1082D000967100220DF11409484605F0ABF91421FE
:1082E0000022E946484605F0A5F95FF0050A504628
:1082F000C0B20A281CDA5346DBB23A00DFF8101885
:10830000684605F077F95046C0B24044827F69461E
:1083100005A8FFF75EFB05AADFF8F817280005F0AF
:1083200069F92900200005F028FA1AF1010ADEE7B0
:10833000DFF8541B280005F05DF92900200005F046
:108340001CFA484680B250B0BDE8F0875C2D0308A7
:10835000885F03082DE9F84FACB005000E00170048
:108360009846DDF8DC90389C3A00DFF8D0133000F6
:1083700005F040F93100280005F0FFF95FF0000A30
:108380005046C0B20A2846DA5146C9B203204143DA
:1083900009EB0100807810F5FA60ADF81400514641
:1083A000C9B20320414309EB01004078401CADF8FD
:1083B00012005146C9B20320414319F80100401C84
:1083C000ADF81000BDF81000C0B2FFF77DFC834689
:1083D000BDF81200C0B2FFF74CFCCDF80CB0029013
:1083E000BDF8140001905046C0B200902300DBB2EB
:1083F0004246DFF8241706A805F0FCF806AADFF8C5
:108400001417300005F0F6F83100280005F0B5F932
:108410001AF1010AB4E7369ADFF8E816300005F0E1
:10842000E9F83100280005F0A8F9BDF816002DB0D4
:10843000BDE8F08F7C000020785F0308805F0308B0
:10844000905F0308C05A0308A84F0308F4140308F8
:10845000F80903082C0303082C1503087C03030800
:10846000701B0308C8060308340F0308CC03030875
:1084700044FC0208A8FC02080CFD020854D90208BA
:108480004CDA020844DB02083CDC020834DD020856
:108490002CDE020824DF02081CE0020814E10208B6
:1084A0000CE20208CCEE0208ECF80208CC5A0308F1
:1084B00058F9020840540308505403086054030854
:1084C000842D03082DE9F04F85B0040004200490AA
:1084D000002003902500039A0499280005F0AAF8CB
:1084E0004FF4007702970025DFF8F86AB0462A00BB
:1084F0000299404605F09EF801970027DFF8E88AC8
:108500003A000199404605F095F85FF080085FF069
:108510000009DFF8D8AA4A464146504605F08AF8D5
:10852000DFF8CC1A200005F028F9DFF8C81A20007F
:1085300005F023F9DFF8C01A3000FFF7ECF831003E
:10854000200005F01AF9DFF8B4AA1AF11000009023
:10855000002372A2DFF8A81A3000FFF736F93100C5
:10856000200005F00AF901213000FFF70DF9310074
:10857000200005F002F90FF2AC1B59463000FFF75E
:10858000CAF83100200005F0F8F8DFF8782ADFF8A3
:10859000781A3000FFF796F93100200005F0EDF869
:1085A000DFF8682ADFF8681A3000FFF78BF931002E
:1085B000200005F0E2F8DFF85C2ADFF85C1A3000F2
:1085C000FFF780F93100200005F0D7F8DFF84C2ADA
:1085D000DFF84C1A3000FFF775F93100200005F084
:1085E000CCF8DFF8402ADFF8401A3000FFF76AF9CC
:1085F0003100200005F0C1F8DFF8302ADFF8301A2A
:108600003000FFF75FF93100200005F0B6F8594659
:108610003000FFF78CF83100200005F0AEF8DFF8ED
:10862000141A3000FFF777F83100200005F0A5F8A4
:1086300040A13000FFF76FF83100200005F09DF8F1
:1086400059463000FFF767F83100200005F095F833
:1086500003213000FFF798F83100200005F08DF875
:10866000DFF8D4193000FFF756F83100200005F08C
:1086700084F859463000FFF75AF83100200005F021
:108680007CF802213000FFF77FF83100200005F070
:1086900074F829A13000FFF73EF83100200005F002
:1086A0006CF8DFF898193000FFF735F8310020003A
:1086B00005F063F80AF27222DFF884193000FFF740
:1086C00010FA3100200005F058F80AF24A22DFF8CB
:1086D00074193000FFF705FA3100200005F04DF85D
:1086E0000AF28222DFF8501C3000FFF7FAF931005D
:1086F000200005F042F8200005F04EF840F6B931B0
:108700008842FBD205B0BDE8F08F000094E5020876
:1087100004E3020828E602087054030868310000E8
:108720008054030868320000905403080436002087
:1087300008360020756C000068330000D4F202088F
:10874000A41B03083CE70208BCE70208D81B030887
:108750002DE9F84F92B005000420119000201090F0
:108760002E00109A1199300004F064FF4FF4007746
:108770000F9700200E90DFF86C68B0460E9A0F99A4
:10878000404604F057FF0D9700200C90DFF8587812
:10879000B8460C9A0D99404604F04CFF80200B908F
:1087A00000200A90DFF844880A9A0B99404604F0AA
:1087B00041FF8020099000200890B846089A099946
:1087C000404604F037FFDFF8348898F871020090D3
:1087D00098F8703298F86F22DFF8601B380004F0C8
:1087E00009FF3A00DFF8581B3000FFF77AF9310033
:1087F000280004F0C2FF8020079000200690B946B0
:10880000069A0799484604F015FF98F86F020390FE
:1088100098F86E02029098F86D02019098F86C0238
:10882000009098F86B3298F86A22DFF8181B38002D
:1088300004F0E0FE3A00DFF8101B3000FFF751F9BA
:108840003100280004F099FFDFF8002BDFF8001B4F
:108850003000FFF746F93100280004F08EFF802039
:10886000029000200190B946019A0299484604F00E
:10887000E1FEDFF8E0AA98F8113098F81020514690
:10888000380004F0B7FE3A00DFF8CC1A3000FFF7EA
:1088900028F93100280004F070FF802000905FF07C
:1088A0000009BB464A460099584604F0C3FE98F8B2
:1088B000133098F812205146380004F09BFE3A001D
:1088C000DFF8981A3000FFF70CF93100280004F0A7
:1088D00054FF062100220DF11008404604F0AAFEC4
:1088E000DFF87CAA5146002004F0F1FFDFF8741A8B
:1088F000BAF808200889121A8DF810200DF1100816
:108900009AF9072091F90700121A88F801209AF9BC
:10891000052091F90500121A88F802209AF9022020
:1089200091F90200121A88F803209AF9032091F9AC
:108930000300121A88F804209AF9042091F904001F
:10894000121A88F80520641C2000C0B218F9000033
:10895000002815D504A82100C9B2084410F8010C5C
:10896000401E04A92200D2B2114401F8010C2000DB
:10897000C0B218F800000C302100C9B208F801009C
:10898000641C2000C0B218F90000002815D504A806
:108990002100C9B2084410F8010C401E04A92200AD
:1089A000D2B2114401F8010C2000C0B218F8000046
:1089B0001E302100C9B208F80100641C2000C0B2BA
:1089C00018F90000002815D504A82100C9B20844F0
:1089D00010F8010C401E04A92200D2B2114401F883
:1089E000010C2000C0B218F8000018302100C9B2F4
:1089F00008F80100641C2000C0B218F9000000282B
:108A000015D504A82100C9B2084410F8010C401E75
:108A100004A92200D2B2114401F8010C2000C0B216
:108A200018F800003C302100C9B208F80100641CAD
:108A30002000C0B218F90000002815D504A82100B4
:108A4000C9B2084410F8010C401E04A92200D2B299
:108A5000114401F8010C2000C0B218F800003C30AD
:108A60002100C9B208F801005FF080095FF0000A38
:108A7000BB4652464946584604F0DCFD98F90500CD
:108A8000039098F90400029098F90300019098F976
:108A90000200009098F901309DF91020DFF85C1B6E
:108AA000380004F0A7FD3A00DFF8541B3000FFF750
:108AB00018F83100280004F060FE13A13000FEF722
:108AC00036FE3100280004F058FEDFF8381B300075
:108AD000FEF72DFE3100280004F04FFEDFF8281BC2
:108AE0003000FEF724FE3100280004F046FE280086
:108AF00004F052FE40F6B9318842FBD213B0BDE813
:108B0000F08F0000B4E602086833000044F3020866
:108B1000985F0308C4F902080C1C03082DE9F84FFC
:108B20008AB0040004200990002008902500089ACB
:108B30000999280004F07EFD4FF400750795002088
:108B40000690DFF8A0643700069A0799380004F011
:108B500071FD059500200490DFF88C743D00049AA7
:108B60000599280004F066FD802003900020029003
:108B7000DFF87854029A0399280004F05BFDC0A541
:108B800029003000FEF7C7FD3100200004F0F5FD9C
:108B900001213000FEF7F8FD3100200004F0EDFD6A
:108BA000DFF8681A3000FEF7B6FD3100200004F04F
:108BB000E4FD29003000FEF7BAFD3100200004F08A
:108BC000DCFD0FF2C02841463000FEF7A4FD310065
:108BD000200004F0D2FDDFF864143000FEF79BFDA6
:108BE0003100200004F0C9FDDFF824AADFF80C945E
:108BF00099F80700019099F80600009099F805305F
:108C000099F804205146380004F0F4FC3A00DFF8EB
:108C1000041A3000FEF765FF3100200004F0ADFDBE
:108C200099F80B00019099F80A00009099F8093022
:108C300099F808205146380004F0DCFC3A00DFF8CF
:108C4000D8193000FEF74DFF3100200004F095FDEB
:108C500099F80F00019099F80E00009099F80D30E6
:108C600099F80C205146380004F0C4FC3A00DFF8B3
:108C7000AC193000FEF735FF3100200004F07DFD17
:108C800041463000FEF753FD3100200004F075FD31
:108C9000DFF870193000FEF74AFD3100200004F0C3
:108CA0006CFDDFF864A951463000FEF740FD31004D
:108CB000200004F062FD75A13000FEF738FD3100A0
:108CC000200004F05AFDDFF858B959463000FEF78D
:108CD0002EFD3100200004F050FD01213000FEF790
:108CE00053FD3100200004F048FD29003000FEF75C
:108CF00012FD3100200004F040FDDFF8301B300091
:108D0000FEF709FD3100200004F037FD2900300096
:108D1000FEF70DFD3100200004F02FFD414630002C
:108D2000FEF7F9FC3100200004F027FDDFF8001BFE
:108D30003000FEF7F0FC3100200004F01EFDDFF8EB
:108D4000F41A3000FEF7E7FC3100200004F015FDB6
:108D50000121DFF8E40A04F09EFE0500280080B23D
:108D6000002803D0280080B2022805D119F16A0238
:108D700096A1380004F03EFC280080B2012803D000
:108D8000280080B2032805D119F14A028FA13800CA
:108D900004F030FC3A00DFF8A41A3000FEF7A1FE20
:108DA0003100200004F0E9FCDFF8941A3800FEF7E7
:108DB000B2FC3A00DFF88C1A3000FEF792FE310068
:108DC000200004F0DAFCDFF8801A3800FEF7A3FC7C
:108DD0003A00DFF8781A3000FEF783FE31002000F9
:108DE00004F0CBFCDFF8681A3800FEF794FC3A0078
:108DF000DFF8601A3000FEF774FE3100200004F046
:108E0000BCFC73A00090DFF8503A72A2DFF84C1A55
:108E10003800FEF765FD3A00DFF8441A3000FEF72F
:108E200060FE3100200004F0A8FC41463000FEF74F
:108E30007EFC3100200004F0A0FCDFF8C8173000F1
:108E4000FEF775FC3100200004F097FC514630001D
:108E5000FEF76DFC3100200004F08FFC5946300015
:108E6000FEF765FC3100200004F087FC200004F0D0
:108E700093FC40F6B9318842FBD20BB0BDE8F08FCD
:108E80006832000068330000A05F0308756C0000C2
:108E90002DE9F04F85B004000420049000200390D9
:108EA0002500039A0499280004F0C4FB4FF40077CE
:108EB000029700254B4EB0462A000299404604F026
:108EC000B9FB01970027DFF820813A00019940465D
:108ED00004F0B0FB5FF080085FF00009DFF80CA140
:108EE0004A464146504604F0A5FBDFF878193000A9
:108EF000FEF711FC3100200004F03FFC0FF2D80A0D
:108F000051463000FEF707FC3100200004F035FC2C
:108F100002213000FEF738FC3100200004F02DFC67
:108F20000FF2B80B59463000FEF7F5FB3100200078
:108F300004F023FCDFF830193000FEF7ECFB3100C1
:108F4000200004F01AFC59463000FEF7F0FB310017
:108F5000200004F012FC22A00090DFF85C3B1DA270
:108F6000DFF8581B3000FEF7ADFD3100200004F0A3
:108F700004FC06213000FEF7E6FB3100200004F07F
:108F8000FCFB51463000FEF7D2FB3100200004F01C
:108F9000F4FBDFF88C163000FEF7C9FB310020002F
:108FA00004F0EBFBDFF8281D3000FEF7C0FB3100BA
:108FB000200004F0E2FB200004F0EEFB40F6B931A3
:108FC0008842FBD205B0BDE8F08F00002573000099
:108FD0006F73660031000000756C0000683200009D
:108FE00072736600E4220020E4240020E4300020B4
:108FF000B4D5020810D40208A85F0308D8000020E6
:1090000068120308D85A0308A0540308B054030890
:10901000BC4F0308E45A0308F84A0308D054030875
:10902000C0540308F05A0308B05F0308FC5A030851
:10903000E0540308243E0308AC2D0308B4F30208EF
:10904000AC440308401C03082DE9F04F87B004002E
:1090500004200690002005902500059A0699280016
:1090600004F0E8FA4FF40076049600200390DFF84D
:10907000505A2F00039A0499380004F0DBFA029644
:1090800000200190DFF83C6A3700019A029938000D
:1090900004F0D0FA80275FF00008DFF82C9A4246EF
:1090A0003900484604F0C6FADFF8201A200004F020
:1090B00064FBDFF81C1A200004F05FFBDFF8141AD1
:1090C0002800FEF728FB2900200004F056FB0FF2D1
:1090D000582A51462800FEF71EFB2900200004F004
:1090E0004CFBDFF8F49919F11000009000238FA2D7
:1090F000DFF8E8192800FEF768FB2900200004F0DB
:109100003CFB01212800FEF73FFB2900200004F072
:1091100034FB0FF21C2B59462800FEF7FCFA2900FD
:10912000200004F02AFBDFF8B829DFF8B81928007E
:10913000FEF7C8FB2900200004F01FFBDFF8A82978
:10914000DFF8A8192800FEF7BDFB2900200004F075
:1091500014FBDFF89C29DFF89C192800FEF7B2FB0E
:109160002900200004F009FBDFF8702BDFF8701BEA
:109170002800FEF7A7FB2900200004F0FEFADFF824
:10918000642BDFF8641B2800FEF79CFB29002000FD
:1091900004F0F3FADFF8542BDFF8541B2800FEF735
:1091A00091FB2900200004F0E8FA59462800FEF758
:1091B000BEFA2900200004F0E0FA51462800FEF72C
:1091C000B6FA2900200004F0D8FADFF8281B28009E
:1091D000FEF7A1FA2900200004F0CFFA5946280032
:1091E000FEF799FA2900200004F0C7FA02212800AE
:1091F000FEF7CAFA2900200004F0BFFADFF8F81AD7
:109200002800FEF788FA2900200004F0B6FA0121B0
:109210002800FEF7B9FA2900200004F0AEFA5946FA
:109220002800FEF784FA2900200004F0A6FA0FF2C5
:10923000041A51462800FEF76EFA2900200004F0B7
:109240009CFADFF8B81A2800FEF765FA290020001A
:1092500004F093FA09F272231022DFF8A41A300006
:10926000FEF7F2FA3200DFF89C1A2800FEF739FC0C
:109270002900200004F081FA09F24A231022DFF8C5
:10928000881A3000FEF7E0FA3200DFF8801A280072
:10929000FEF727FC2900200004F06FFA09F2822370
:1092A0001022DFF86C1A3000FEF7CEFA32002249A5
:1092B0002800FEF716FC2900200004F05EFA514653
:1092C0002800FEF728FA2900200004F056FACD4EB7
:1092D00031002800FEF72BFA2900200004F04DFA97
:1092E000DFF8D49E49462800FEF721FA2900200025
:1092F00004F043FA31002800FEF719FA2900200093
:1093000004F03BFA49462800FEF711FA2900200034
:1093100004F033FA200004F03FFA40F6B9318842F5
:10932000FBD207B0BDE8F08F756C0000683100001B
:1093300068320000683300007C370308085B0308CC
:10934000C8440308D04F0308E44F030850560308ED
:10935000A0370308B85F0308F84F03086415030833
:10936000883500207C3500202DE9F04F85B00400C1
:1093700004200490002003902500039A04992800FB
:1093800004F058F94FF40076029600200190DFF8BF
:1093900030572F00019A0299380004F04BF90096DB
:1093A0000026DFF82077B84632000099404604F0E6
:1093B00041F95FF080085FF00009DFF80CA7D346A1
:1093C0004A464146584604F035F901212800FEF787
:1093D000DBF92900200004F0D0F90FF2182B5946D0
:1093E0002800FEF798F92900200004F0C6F9DFF8FC
:1093F00024192800FEF78FF92900200004F0BDF998
:1094000059462800FEF793F92900200004F0B5F929
:10941000DFF8E8182800FEF77EF92900200004F0A4
:10942000ACF9DFF8B4B69BF81E00002805D1DFF8D0
:10943000F81A3800FEF76FF904E0DFF8F01A380088
:10944000FEF769F93A00DFF8E81A2800FEF749FB51
:109450002900200004F091F96D4E9BF8070001905F
:109460009BF8060000909BF805309BF80420310023
:10947000504604F0BFF853461022DFF8B81A3800FF
:10948000FEF7E2F93A00DFF8B01A2800FEF729FBF0
:109490002900200004F071F99BF80B0001909BF863
:1094A0000A0000909BF809309BF8082031005046D4
:1094B00004F0A0F853461022DFF8801A3800FEF7B7
:1094C000C3F93A00DFF8781A2800FEF70AFB2900F2
:1094D000200004F052F99BF80F0001909BF80E0059
:1094E00000909BF80D309BF80C203100504604F0A2
:1094F00081F853461022DFF84C1A3800FEF7A4F921
:109500003A0046492800FEF7ECFA2900200004F052
:1095100034F99BF8420001909BF8410000909BF8C1
:1095200040309BF83F203100504604F063F853462A
:109530001022DFF8141A3800FEF786F93A00DFF837
:109540000C1A2800FEF7CDFA2900200004F015F9C6
:10955000BBF8442028A1504604F04CF85346102292
:10956000DFF8EC193800FEF76FF93A00DFF8E4197C
:109570002800FEF7B6FA2900200004F0FEF89BF858
:10958000BC0201909BF8BB0200909BF8BA329BF89A
:10959000B9223100504604F02DF853461022DFF86E
:1095A000B8193800FEF750F93A00DFF8B019280072
:1095B000FEF797FA2900200004F0DFF8114928008F
:1095C000FEF7B5F82900200004F0D7F8DFF8E81B13
:1095D0002800FEF7ACF82900200004F0CEF82000A7
:1095E00004F0DAF840F6B9318842FBD205B0BDE8A4
:1095F000F08F00006832000025640000D42D0308BD
:10960000A8200308C05F0308C85F0308C437030825
:10961000C05A0308E8370308E4440308145B03084E
:10962000D05F03082DE9F04F89B0040004200890B2
:10963000002007902500079A0899280003F0FAFFF8
:109640004FF40076069600200590DFF874542F0042
:10965000059A0699380003F0EDFF04960020039068
:10966000DFF860643700039A0499380003F0E2FFE2
:10967000802002900027DFF85084C1463A0002990A
:10968000484603F0D7FF01212800FEF77DF82900A6
:10969000200004F072F80FF28C1A51462800FEF7F1
:1096A0003AF82900200004F068F8DFF8681A28006A
:1096B000FEF731F82900200004F05FF85146280039
:1096C000FEF735F82900200004F057F8DFF82CB633
:1096D00059462800FEF71FF82900200004F04DF835
:1096E000DFF8F49319F11F031022DFF8DC1A3000C1
:1096F000FEF7AAF83200DFF8D41A2800FEF7F1F9D5
:109700002900200004F039F819F12F031022DFF8A6
:10971000C01A3000FEF7ABF83200DFF8B81A2800A4
:10972000FEF7DFF92900200004F027F8DFF8A81A77
:109730002800FDF7FCFF2900200004F01EF8DFF8E8
:10974000781A2800FDF7F3FF2900200004F015F82F
:1097500001212800FEF718F82900200004F00DF878
:1097600051462800FDF7D7FF2900200004F005F836
:10977000DFF8681A2800FDF7CEFF2900200003F06B
:10978000FCFF51462800FDF7D2FF2900200003F01E
:10979000F4FF59462800FDF7BEFF2900200003F022
:1097A000ECFF99F89502019099F89402009099F8CD
:1097B000933299F89222DFF8281A404603F01AFFF4
:1097C00043461022DFF81C1A3000FEF73DF8320045
:1097D000DFF8141A2800FEF784F92900200003F0AE
:1097E000CCFFB9F8082210A1404603F003FF43461E
:1097F0001022DFF8F8193000FEF726F83200DFF803
:109800008C1D2800FEF76DF92900200003F0B5FF3C
:10981000200003F0C1FF40F6B9318842FBD209B005
:10982000BDE8F08F6832000025640000D8200308EE
:10983000FC2D0308B8E902087C3400200C3803082A
:109840009C15030800450308082103081C4503086C
:109850003821030838450308104B0308205B030830
:10986000242E03084C2E0308741C03082DE9F84F1E
:109870008AB0040004200990002008902500089A6E
:109880000999280003F0D6FE4FF4007607960020D1
:1098900006908B4D2F00069A0799380003F0CAFEF8
:1098A000059600200490874E3700049A05993800E9
:1098B00003F0C0FE8020039000200290824FB84643
:1098C000029A0399404603F0B5FEDFF80C89414641
:1098D0002800FDF72CFF2900200003F04EFFDFF8E1
:1098E000D89849462800FDF722FF2900200003F000
:1098F00044FF01212800FDF747FF2900200003F065
:109900003CFF0FF2AC1A51462800FDF704FF290076
:10991000200003F032FFDFF8D8182800FDF7FBFE27
:109920002900200003F029FF51462800FDF7FFFE23
:109930002900200003F021FFF0492800FDF7EBFE8D
:109940002900200003F019FFDFF894A8DFF888B1A0
:109950009BF8E10101909BF8E00100909BF8DF315A
:109960009BF8DE215146380003F044FE3B001022F4
:10997000DFF880183000FDF767FF3200DFF8781855
:109980002800FEF7AEF82900200003F0F6FE9BF851
:10999000E50101909BF8E40100909BF8E3319BF80E
:1099A000E2215146380003F025FE3B001022DFF88B
:1099B0004C183000FDF748FF3200DFF8441828004B
:1099C000FEF78FF82900200003F0D7FE9BF99622BE
:1099D00038A1380003F00EFE3B001022DFF82418F7
:1099E0003000FDF731FF3200DFF81C182800FEF7C9
:1099F00078F82900200003F0C0FEDFF810A85146D7
:109A0000002003F064FFDFF808B8BAF808000090FF
:109A10009AF807309AF805205946380003F0EAFD15
:109A20003B001022DFF8EC173000FDF70DFF32008D
:109A3000DFF8E4172800FEF754F82900200003F0AF
:109A40009CFE9AF8040000909AF803309AF80220DD
:109A50005946380003F0CEFD3B001022DFF8BC175A
:109A60003000FDF7F1FE3200DFF8441D2800FEF75C
:109A700038F82900200003F080FE41462800FDF759
:109A800056FE2900200003F078FE49462800FDF725
:109A90004EFE2900200003F070FE200003F07CFE43
:109AA00040F6B9318842FBD20BB0BDE8F08F000020
:109AB0006832000025640000D85F03082C5B0308AF
:109AC000E4220020E4240020E4300020B4D5020881
:109AD00010D40208A85F0308D80000206812030809
:109AE000D85A0308A0540308B0540308BC4F030815
:109AF000E45A0308F84A03082DE9F04F85B0040042
:109B000004200490002003902500039A0499280063
:109B100003F090FD4FF40076029600200190DFF8EC
:109B2000805A2F00019A0299380003F083FD0096B5
:109B30000026DFF8707AB84632000099404603F0FC
:109B400079FD5FF080085FF00009DFF85CAA4A4603
:109B50004146504603F06EFD01212800FDF714FE3A
:109B60002900200003F009FE0FF2681B5946280067
:109B7000FDF7D1FD2900200003F0FFFDDFF82C1ACE
:109B80002800FDF7C8FD2900200003F0F6FD594626
:109B90002800FDF7CCFD2900200003F0EEFD574919
:109BA0002800FDF7B8FD2900200003F0E6FDDFF8EE
:109BB00000AA1AF14A032022DFF8F8193800FDF74D
:109BC00043FE3A00DFF8F0192800FDF78AFF29006C
:109BD000200003F0D2FD1AF16A032022DFF8DC191D
:109BE0003800FDF731FE3A00DFF8D4192800FDF700
:109BF00078FF2900200003F0C0FD59462800FDF73A
:109C00008AFD2900200003F0B8FD33A2DFF8B41963
:109C10002800FDF766FF2900200003F0AEFD59463D
:109C20002800FDF784FD2900200003F0A6FD9AF826
:109C3000970200280FD1DFF890193800FDF76BFD6F
:109C40003A00DFF888192800FDF74BFF29002000B3
:109C500003F093FD0EE0DFF878193800FDF75BFDA7
:109C60003A00DFF868192800FDF73BFF29002000C3
:109C700003F083FD9AF8970201280FD1DFF85419F9
:109C80003800FDF748FD3A00DFF8401D2800FDF7D9
:109C900028FF2900200003F070FD0EE0DFF83819DE
:109CA0003800FDF738FD3A00DFF8201D2800FDF7E9
:109CB00018FF2900200003F060FD200003F06CFD78
:109CC00040F6B9318842FBD205B0BDE8F08F000004
:109CD000E05F03086832000000000000D054030871
:109CE000C0540308F05A0308B05F0308FC5A030885
:109CF000F0540308742E0308AC2D030830EA020860
:109D0000385B0308AC440308445B0308401C0308A9
:109D1000505B0308303803082DE9F84F84B0040085
:109D200004200390002002902500029A0399280045
:109D300003F080FC4FF4007701970025DFF860689E
:109D4000B0462A000199404603F074FC00970027B2
:109D5000DFF85088C1463A000099484603F06AFC93
:109D60005FF080095FF0000ADFF83CB852464946D0
:109D7000584603F05FFCDFF838B89BF897020228DA
:109D80000FD1DFF8301A4046FDF7C5FC4246DFF838
:109D9000281A3000FDF7A5FE3100200003F0EDFC8D
:109DA0000EE0DFF8181A4046FDF7B5FC4246DFF832
:109DB000081A3000FDF795FE3100200003F0DDFCAD
:109DC0009BF8970203280FD1DFF8F4194046FDF7FE
:109DD000A2FC4246DFF8EC193000FDF782FE3100AC
:109DE000200003F0CAFC0EE0DFF8DC194046FDF766
:109DF00092FC4246DFF8CC193000FDF772FE3100CC
:109E0000200003F0BAFC47A5DFF8C0090090DFF896
:109E1000C0392A00DFF8BC194046FDF761FD424613
:109E2000DFF8B4193000FDF75CFE3100200003F0CC
:109E3000A4FCDFF8A87939003000FDF778FC310088
:109E4000200003F09AFCDFF898193000FDF763FC5E
:109E50003100200003F091FCDFF888090090DFF862
:109E600088392A00DFF884194046FDF739FD42465B
:109E7000DFF87C193000FDF734FE3100200003F0DC
:109E80007CFC39003000FDF752FC3100200003F06B
:109E900074FCDFF83C1B3000FDF73DFC3100200076
:109EA00003F06BFCDFF82C0B0090DFF82C3B2A0052
:109EB000DFF8281B4046FDF713FD4246DFF8201B64
:109EC0003000FDF70EFE3100200003F056FC390093
:109ED0003000FDF72CFC3100200003F04EFCBE49A1
:109EE0003000FDF724FC3100200003F046FCB249AD
:109EF0003000FDF71CFC3100200003F03EFCDFF8D1
:109F0000241D3000FDF713FC3100200003F035FC68
:109F1000200003F041FC40F6B9318842FBD205B085
:109F2000BDE8F08F31000000A81C0308A41203084C
:109F300014070308E85F0308005503085C5B030887
:109F400054450308685B0308745B03080C5003085E
:109F5000805B0308443E03088C5B0308DC1C030899
:109F60002DE9F04F85B004000420049000200390F8
:109F70002500039A0499280003F05CFB4FF4007756
:109F800002970025DFF81866B0462A00029940467D
:109F900003F050FB01970027DFF808863A0001998B
:109FA000404603F047FB5FF080085FF00009DFF8F0
:109FB000F8A54A464146504603F03CFBDFF8241A18
:109FC000200003F0DAFBDFF8201A200003F0D5FBB5
:109FD000DFF8181A3000FDF79EFB3100200003F077
:109FE000CCFB0FF2D81A51463000FDF794FB31003C
:109FF000200003F0C2FBDFF8F8090090002370A2F4
:10A00000DFF8F0193000FDF7E0FB3100200003F02D
:10A01000B4FB01213000FDF7B7FB3100200003F055
:10A02000ACFB0FF2A01B59463000FDF774FB31006A
:10A03000200003F0A2FBDFF8C029DFF8C0193000D0
:10A04000FDF740FC3100200003F097FBDFF8B0295A
:10A05000DFF8B0193000FDF735FC3100200003F0C7
:10A060008CFBDFF8A429DFF8A4193000FDF72AFCE7
:10A070003100200003F081FBDFF89429DFF8941908
:10A080003000FDF71FFC3100200003F076FBDFF805
:10A090008829DFF888193000FDF714FC3100200012
:10A0A00003F06BFBDFF87829DFF878193000FDF753
:10A0B00009FC3100200003F060FB59463000FDF739
:10A0C00036FB3100200003F058FB51463000FDF70D
:10A0D0002EFB3100200003F050FBDFF84C1B20006A
:10A0E00003F04BFBDFF8441B3000FDF714FB31009D
:10A0F000200003F042FBDFF8481D200003F03DFB89
:10A10000200003F049FB40F6B9318842FBD205B08C
:10A11000BDE8F08F9C2E03082DE9FE4F04000420BB
:10A120000290002526002A000299300003F082FAEE
:10A130004FF40078CDF804800026DFF86474B94647
:10A1400032000199484603F075FACDF800805FF0BF
:10A150000008DFF8509442460099484603F06AFA36
:10A160005FF080095FF0000ADFF83CB452464946D0
:10A17000584603F05FFADFF8B81A200003F0FDFA42
:10A18000DFF858163800FDF7D2FA3900200003F046
:10A19000F4FADFF8901A3800FDF7C9FA3900200008
:10A1A00003F0EBFA200003F0F7FA40F6B9318842E9
:10A1B000FBD2BDE8FE8F0000C85F0308756C00008D
:10A1C0006831000068320000F05F0308643E030855
:10A1D000985B030810550308C05F03082055030867
:10A1E000C05A0308A45B0308E0120308B05B03082D
:10A1F000D4150308BC5B030820500308C85B0308A0
:10A2000034500308D45B0308C42E030888350020AB
:10A21000E05B0308F85F03088C450308EC5B030868
:10A220002DE9F04F93B0040004201290002011900B
:10A230002500119A1299280003F0FCF94FF40079D7
:10A24000CDF8409000200F90D54D2E000F9A109918
:10A25000300003F0EFF9CDF8389000200D90D14E8A
:10A2600037000D9A0E99380003F0E4F980200C9025
:10A2700000200B90CC4FB8460B9A0C99404603F047
:10A28000D9F9DFF86017200003F077FADFF85817E4
:10A29000200003F072FADFF854172800FDF73BFAAC
:10A2A0002900200003F069FA0FF2D42A5146280051
:10A2B000FDF731FA2900200003F05FFADFF8F082A1
:10A2C00018F1100000900023AEA2DFF82817280034
:10A2D000FDF77BFA2900200003F04FFA0121280046
:10A2E000FDF752FA2900200003F047FA0FF2982BED
:10A2F00059462800FDF70FFA2900200003F03DFA27
:10A30000DFF8F426DFF8F4162800FDF7DBFA290061
:10A31000200003F032FADFF8E826DFF8E81628001C
:10A32000FDF7D0FA2900200003F027FADFF8D8263D
:10A33000DFF8D8162800FDF7C5FA2900200003F041
:10A340001CFADFF8CC26DFF8CC162800FDF7BAFAA5
:10A350002900200003F011FADFF8BC26DFF8BC1654
:10A360002800FDF7AFFA2900200003F006FADFF815
:10A37000B026DFF8B0162800FDF7A4FA2900200067
:10A3800003F0FBF959462800FDF7D1F92900200018
:10A3900003F0F3F951462800FDF7C9F92900200020
:10A3A00003F0EBF9DFF8A41A2800FDF7B4F929004F
:10A3B000200003F0E2F959462800FDF7ACF9290026
:10A3C000200003F0DAF902212800FDF7DDF9290069
:10A3D000200003F0D2F9DFF8781A2800FDF79BF986
:10A3E0002900200003F0C9F901212800FDF7CCF96C
:10A3F0002900200003F0C1F959462800FDF797F91C
:10A400002900200003F0B9F961A12800FDF783F9C4
:10A410002900200003F0B1F9DFF8381A2800FDF711
:10A420007AF92900200003F0A8F9CDF8289000203F
:10A430000990B246099A0A99504603F0FBF898F839
:10A440009922DFF8141A3000FDF778FA3200DFF8AD
:10A450000C1A2800FDF745FB2900200003F08DF9B8
:10A46000200003F099F90190CDF82090002007908A
:10A47000B146079A0899484603F0DCF88020069018
:10A4800000200590B946059A0699484603F0D2F88F
:10A490000FF2001998F89A0200903FA34A46DFF89D
:10A4A000C0193800FDF72BFA3900300003F065F9C8
:10A4B000DFF8B0193800FDF72EF93900300003F04D
:10A4C0005CF903F069F9019080200490002003906A
:10A4D000BA46039A0499504603F0ACF898F89B02E8
:10A4E00000902EA34A46DFF880193800FDF707FADE
:10A4F0003900300003F041F9DFF870193800FDF73A
:10A500000AF93900300003F038F903F045F90190F9
:10A51000802002905FF0000ABB46524602995846DE
:10A5200003F088F898F89C020090A0A34A46DFF850
:10A5300040193800FDF7E3F93900300003F01DF948
:10A54000DFF830193800FDF7E6F83900300003F085
:10A5500014F903F021F907003200DFF8C81E2800C3
:10A56000FDF7BFFA2900200003F007F9200003F0EF
:10A5700013F940F6B9318842FBD213B0BDE8F08F31
:10A58000756C0000683100006832000070450308F7
:10A59000683300003100000041000000420000006C
:10A5A000E4220020E4240020E4300020740F03089B
:10A5B000D800002000600308B40F0308F85B03080C
:10A5C000F40F03081C0403080C160308543803088E
:10A5D0006821030844160308982103082DE9F84F61
:10A5E00088B0040004200790002006902500069AF9
:10A5F0000799280003F01EF84FF400760596002016
:10A600000490DFF874582F00049A0599380003F07D
:10A6100011F8039600200290DFF860884646029AFF
:10A620000399300003F006F880260027DFF85098E1
:10A63000CA463A003100504602F0FCFFDFF844B849
:10A64000DFF844A89AF8A00201909AF89F020090BF
:10A650009AF89E329AF89D225946484602F0CAFF5F
:10A660004B460F22DFF824184046FDF7EDF842462E
:10A67000DFF81C182800FDF734FA2900200003F049
:10A680007CF89AF8A40201909AF8A30200909AF834
:10A69000A2329AF8A1225946484602F0ABFF4B4637
:10A6A0000F22DFF8F0174046FDF7CEF84246DFF8FC
:10A6B000E8172800FDF715FA2900200003F05DF8DF
:10A6C0009AF8A80201909AF8A70200909AF8A63288
:10A6D0009AF8A5225946484602F08CFF4B460F22B5
:10A6E000DFF8D41A4046FDF7AFF84246DFF8CC1A3F
:10A6F0002800FDF7F6F92900200003F03EF8BAF82B
:10A70000AA22DFF8BC1A404602F074FF4246DFF886
:10A71000B41A2800FDF7E5F92900200003F02DF810
:10A720000FF2A42BBAF8AC225946484602F062FF59
:10A7300040F22D1001900A2000904B460322DFF8D2
:10A74000881A4046FDF7A6F84246DFF8801A28002E
:10A75000FDF7C7F92900200003F00FF8BAF8AE2280
:10A760005946484602F046FF42F2283001904FF425
:10A77000167000904B460422DFF8541A4046FDF74D
:10A7800089F84246DFF86C1E2800FDF7AAF9290077
:10A79000200002F0F2FF200002F0FEFF40F6B93187
:10A7A0008842FBD209B0BDE8F08F000043000000F2
:10A7B000A84503087C16030878380308C821030855
:10A7C000B41603089C380308F8210308086003083E
:10A7D00048500308045C0308EC2E0308D05F03080C
:10A7E000BC2603081C5C03085C500308105C0308CB
:10A7F000EC1603082DE9F84F88B0040004200790F8
:10A80000002006902500069A0799280002F012FF02
:10A810004FF40076059600200490DFF85C562F0078
:10A82000049A0599380002F005FF03960020029073
:10A83000DFF848864646029A0399300002F0FAFE95
:10A8400080260027DFF83896CA463A003100504685
:10A8500002F0F0FE0FF2701ADFF82CB6BBF8B0224F
:10A860005146484602F0C6FE642001900020009048
:10A870004B460322DFF85C194046FDF70BF84246D1
:10A88000DFF854192800FDF72CF92900200002F008
:10A8900074FFBBF8B2225146484602F0ABFE40F2CC
:10A8A00085300190012000904B460322DFF82C19DF
:10A8B0004046FCF7EFFF4246DFF824192800FDF779
:10A8C00010F92900200002F058FFBBF8B4225146CD
:10A8D000484602F08FFE4FF4616001900120009025
:10A8E0004B460422DFF8FC184046FCF7D3FF4246F3
:10A8F000DFF8F4182800FDF7F4F82900200002F032
:10A900003CFFBBF8B6225146484602F073FEFF20DA
:10A910000190012000904B460322DFF8D0184046FA
:10A92000FCF7B8FF4246DFF8C8182800FDF7D9F851
:10A930002900200002F021FFDFF8B8182800FCF7FA
:10A94000F6FE2900200002F018FFDFF8AC182800FE
:10A95000FCF7EDFE2900200002F00FFF0121280086
:10A96000FCF712FF2900200002F007FF0FF2B028C9
:10A9700041462800FCF7CFFE2900200002F0FDFE32
:10A98000DFF8A81A2800FCF7C6FE2900200002F014
:10A99000F4FE41462800FCF7CAFE2900200002F020
:10A9A000ECFEDFF8B0142800FCF7B5FE290020000B
:10A9B00002F0E3FE200002F0EFFE40F6B9318842DB
:10A9C000FBD209B0BDE8F08F25640000101D03081C
:10A9D000E826030810600308284B0308285C0308D6
:10A9E0006C040308B4D5020810D40208A85F030859
:10A9F000E800002068120308D85A0308A05403088E
:10AA0000B0540308BC4F0308E45A0308F84A03088B
:10AA1000D0540308C0540308F05A0308B05F030879
:10AA2000FC5A0308F05403082DE9F84F84B00400E1
:10AA300004200390002002902500029A0399280028
:10AA400002F0F8FD4FF4007701970025DFF8286445
:10AA5000B0462A000199404602F0ECFD009700271D
:10AA6000DFF81884C1463A000099484602F0E2FD3A
:10AA70005FF080095FF0000ADFF804B452464946EF
:10AA8000584602F0D7FDDFF800B49BF89702002883
:10AA90000FD1DFF8A41A4046FCF73DFE4246DFF82E
:10AAA0009C1A3000FDF71DF83100200002F065FE11
:10AAB0000EE0DFF88C1A4046FCF72DFE4246DFF828
:10AAC0007C1A3000FDF70DF83100200002F055FE31
:10AAD0009BF8970201280FD1DFF8681A4046FCF76F
:10AAE0001AFE4246DFF8601A3000FCF7FAFF310028
:10AAF000200002F042FE0EE0DFF8501A4046FCF75C
:10AB00000AFE4246DFF8401A3000FCF7EAFF310047
:10AB1000200002F032FE9BF8970202280FD1DFF8E6
:10AB2000301A4046FCF7F7FD4246DFF8D41A3000F1
:10AB3000FCF7D7FF3100200002F01FFE0EE0DFF827
:10AB4000C41A4046FCF7E7FD4246DFF8B41A30006D
:10AB5000FCF7C7FF3100200002F00FFE9BF89702C0
:10AB600003280FD1DFF8A01A4046FCF7D4FD424677
:10AB7000DFF8981A3000FCF7B4FF3100200002F033
:10AB8000FCFD0EE0DFF8881A4046FCF7C4FD4246A3
:10AB9000DFF8781A3000FCF7A4FF3100200002F043
:10ABA000ECFDDFF850163000FCF7C1FD310020004D
:10ABB00002F0E3FDDFF840163000FCF7B8FD31008D
:10ABC000200002F0DAFD01213000FCF7DDFD31004C
:10ABD000200002F0D2FD12A529003000FCF79BFDF9
:10ABE0003100200002F0C9FDDFF8301E3000FCF714
:10ABF00092FD3100200002F0C0FD29003000FCF77A
:10AC000096FD3100200002F0B8FD200002F0C4FDE6
:10AC100040F6B9318842FBD205B0BDE8F08F0000A4
:10AC200068320000E05F030898FF0208C03803089C
:10AC3000344603082DE9F84F84B004000420039043
:10AC4000002002902500029A0399280002F0F2FCED
:10AC50004FF4007701970025874EB0462A000199EE
:10AC6000404602F0E7FC00970027DFF81082C1465B
:10AC70003A000099484602F0DDFC5FF080095FF081
:10AC8000000ADFF8FCB152464946584602F0D2FCB1
:10AC900070493000FCF73FFD3100200002F06DFDEF
:10ACA000DFF8E4B19BF8980200280FD1DFF8201AF2
:10ACB0004046FCF730FD4246DFF8D41A3000FCF77E
:10ACC00010FF3100200002F058FD0EE0DFF8C41A3A
:10ACD0004046FCF720FD4246DFF8BC1A3000FCF786
:10ACE00000FF3100200002F048FD9BF89802012887
:10ACF0000FD1DFF8A81A4046FCF70DFD4246DFF8F9
:10AD0000A01A3000FCF7EDFE3100200002F035FD06
:10AD10000EE0DFF8901A4046FCF7FDFC4246DFF8F3
:10AD2000801A3000FCF7DDFE3100200002F025FD26
:10AD30009BF8980202280FD1DFF86C1A4046FCF706
:10AD4000EAFC4246DFF8641A3000FCF7CAFE310024
:10AD5000200002F012FD0EE0DFF8541A4046FCF726
:10AD6000DAFC4246DFF8441A3000FCF7BAFE310044
:10AD7000200002F002FD9BF8980203280FD1DFF8B3
:10AD8000F41A4046FCF7C7FC4246DFF8EC1A3000E4
:10AD9000FCF7A7FE3100200002F0EFFC0EE0DFF828
:10ADA000DC1A4046FCF7B7FC4246DFF8D41A300004
:10ADB000FCF797FE3100200002F0DFFCDFF8C40A48
:10ADC0000090DFF8C43A1FA2DFF8C01A4046FCF733
:10ADD00087FD4246DFF8B81A3000FCF782FE3100EA
:10ADE000200002F0CAFC18A13000FCF7A0FC3100E2
:10ADF000200002F0C2FCDFF8FC133000FCF797FCE7
:10AE00003100200002F0B9FCDFF8EC133000FCF751
:10AE10008EFC3100200002F0B0FCDFF8301E300064
:10AE2000FCF785FC3100200002F0A7FC200002F0B6
:10AE3000B3FC40F6B9318842FBD205B0BDE8F08FD3
:10AE4000D4FD02083100000068330000742E0308AE
:10AE5000441D030830EA020830550308142703088C
:10AE600070500308345C030884500308405C0308F6
:10AE7000985003084C5C0308E4220020E4240020DE
:10AE8000E4300020C05A0308D8000020AC5003086A
:10AE9000843E0308C0500308A43E03082DE9F84F80
:10AEA0008CB0040004200B9000200A9025000A9A20
:10AEB0000B99280002F0BEFB4FF4007609960020A3
:10AEC0000890DFF8885A2F00089A0999380002F094
:10AED000B1FB079600200690DFF8746A3700069AE7
:10AEE0000799380002F0A6FB80200590002004900E
:10AEF000DFF8607A049A0599380002F09BFBDFF8CE
:10AF0000581A200002F039FCDFF8501A200002F035
:10AF100034FCDFF84C1A2800FCF7FDFB2900200068
:10AF200002F02BFC0FF2802841462800FCF7F3FBCF
:10AF30002900200002F021FCDFF8E47A17F110006C
:10AF40000090002399A2DFF8DC1A2800FCF73DFCF2
:10AF50002900200002F011FC01212800FCF714FC5C
:10AF60002900200002F009FC0FF24429494628007C
:10AF7000FCF7D1FB2900200002F0FFFBDFF8A82A34
:10AF8000DFF8A81A2800FCF79DFC2900200002F039
:10AF9000F4FBDFF89C2ADFF89C1A2800FCF792FCEF
:10AFA0002900200002F0E9FBDFF88C2ADFF88C1A78
:10AFB0002800FCF787FC2900200002F0DEFBDFF808
:10AFC000802ADFF8801A2800FCF77CFC290020008A
:10AFD00002F0D3FBDFF8702ADFF8701A2800FCF7C4
:10AFE00071FC2900200002F0C8FBDFF8242BDFF8F9
:10AFF000241B2800FCF766FC2900200002F0BDFBA2
:10B0000049462800FCF793FB2900200002F0B5FB1D
:10B0100041462800FCF78BFB2900200002F0ADFB25
:10B02000DFF8F41A2800FCF776FB2900200002F074
:10B03000A4FB49462800FCF76EFB2900200002F023
:10B040009CFB02212800FCF79FFB2900200002F056
:10B0500094FBDFF8C81A2800FCF75DFB29002000EC
:10B0600002F08BFB01212800FCF78EFB2900200059
:10B0700002F083FB49462800FCF759FB2900200019
:10B0800002F07BFB0FF22C1841462800FCF743FB33
:10B090002900200002F071FBDFF8841A2800FCF779
:10B0A0003AFB2900200002F068FBDFF878BADFF8ED
:10B0B000789A00224946584602F0CEFEDFF86CAA84
:10B0C00000225146584602F0CDFD9AF80200039046
:10B0D0009AF8010002909AF80000019099F8030094
:10B0E00010F5FA60009099F8013099F80220DFF825
:10B0F000401A300002F07EFA3200DFF8381A2800D9
:10B10000FCF7EFFC2900200002F037FB97F99622AC
:10B11000DFF8241A300002F06DFA3200DFF8301B3D
:10B120002800FCF7DEFC2900200002F026FBDFF8F7
:10B13000240B0078002805D1DFF81C1B300002F03A
:10B1400059FA04E0DFF8141B300002F053FA320021
:10B15000DFF80C1B2800FCF7C4FC2900200002F0DB
:10B160000CFB41462800FCF7E2FA2900200002F01F
:10B1700004FB20492800FCF7DAFA2900200002F03D
:10B18000FCFADFF80C1D2800FCF7D1FA290020009A
:10B1900002F0F3FA200002F0FFFA40F6B9318842DB
:10B1A000FBD20DB0BDE8F08F756C00006831000077
:10B1B0006832000068330000D4500308C43E03081E
:10B1C000585C030840EF0208405503082822030892
:10B1D000E8500308FC50030834100308105103081A
:10B1E00058220308404B030870FD0208C4450308B9
:10B1F00048010308C05F0308C85F03082DE9F04F4A
:10B200008DB0040004200B9000200A9025000A9ABB
:10B210000B99280002F00EFA4FF4007ACDF824A022
:10B2200000200890DFF824572E00089A0999300072
:10B2300002F000FACDF81CA000200690DFF810679D
:10B240003700069A0799380002F0F4F9802005903B
:10B2500000200490DFF8FC76049A0599380002F08B
:10B26000E9F971A739002800FCF755FA29002000F8
:10B2700002F083FA02212800FCF786FA2900200058
:10B2800002F07BFADFF88C1A2800FCF744FA290058
:10B29000200002F072FA01212800FCF775FA29005B
:10B2A000200002F06AFA39002800FCF740FA290071
:10B2B000200002F062FA9FA739002800FCF72BFA61
:10B2C0002900200002F059FADFF854182800FCF792
:10B2D00022FA2900200002F050FACDF80CA05FF00D
:10B2E0000008B14642460399484602F0A3F9DFF848
:10B2F000309799F88C20DFF8C41A3000FCF71EFB59
:10B300003200DFF8BC1A2800FCF7EBFB2900200014
:10B3100002F033FA200002F03FFA0C90CDF808A0BA
:10B320005FF0000AB34652460299584602F082F98D
:10B3300099F8B8020190DFF88C0A0090DFF8883A9B
:10B34000DFF8882ADFF8881A3000FCF70DFB32009E
:10B35000DFF8801A2800FCF7C4FB2900200002F067
:10B360000CFA200002F018FA8146DFF8280B00786A
:10B37000002807D1DFF8202BDFF8201B2800FCF77E
:10B38000B0FB06E0DFF8182BDFF8101B2800FCF7F5
:10B39000A8FB2900200002F0F0F9200002F0FCF9DF
:10B3A000804600200090DFF8FC3A93A2DFF8F81AFC
:10B3B0003000FCF795FA320090A12800FCF791FBD1
:10B3C0002900200002F0D9F939002800FCF7AFF974
:10B3D0002900200002F0D1F9DFF8D01A2800FCF78C
:10B3E000A6F92900200002F0C8F9DFF8A41A280005
:10B3F000FCF79DF92900200002F0BFF9DFF84C1896
:10B400002800FCF794F92900200002F0B6F920008A
:10B4100002F0C2F940F6B9318842FBD20DB0BDE866
:10B42000F08F00001C13030868320000781D030829
:10B430002DE9FE4F040004200290002526002A007A
:10B440000299300002F0F6F84FF40078CDF804804D
:10B450000026DFF8F874B94632000199484602F038
:10B46000E9F8CDF800805FF00008DFF8E494424688
:10B470000099484602F0DEF85FF080095FF0000AAC
:10B48000DFF8D0B452464946584602F0D3F8DFF808
:10B49000D41A3800FCF73FF93900200002F06DF9AA
:10B4A0000FF2282B59463800FCF735F939002000F7
:10B4B00002F063F902213800FCF766F93900200038
:10B4C00002F05BF9DFF8A01A3800FCF724F9390024
:10B4D000200002F052F901213800FCF755F939003B
:10B4E000200002F04AF959463800FCF720F93900EB
:10B4F000200002F042F90FA13800FCF70CF93900E6
:10B50000200002F03AF9DFF818163800FCF703F9CA
:10B510003900200002F031F99CA239002000FCF72C
:10B52000EEFA200002F038F940F6B9318842FBD239
:10B53000BDE8FE8F683300000C160308543803087A
:10B540006821030844160308101D03089821030806
:10B550007C1603082DE9F84F88B0040004200790FA
:10B56000002006902500069A0799280002F062F84C
:10B570004FF40078CDF8148000200490DFF8CCA3BD
:10B580005546049A0599280002F054F8CDF80C802D
:10B590000025DFF8BCB35E462A000399300002F0B4
:10B5A00049F880260027DFF8AC933A00310048467E
:10B5B00002F040F85FF000094A464146584602F062
:10B5C00039F800200290DFF8600A01906FA0009027
:10B5D000DFF8583ADFF85C2E51462000FCF7F6FC05
:10B5E000200002F0D9F840F6B9318842FBD209B008
:10B5F000BDE8F08F640C030831000000000000007B
:10B6000078380308C8210308B41603089C380308D7
:10B61000F82103082DE9F04F89B0040004200890B8
:10B62000002007902500079A0899280002F002F8E8
:10B630004FF40077069700200590DFF810934D46F1
:10B64000059A0699280001F0F5FF04970020039061
:10B65000DFF8FCB25D46039A0499280001F0EAFF86
:10B6600080250026DFF8ECA2D046320029004046B3
:10B6700001F0E0FF5FF0000842463900584601F053
:10B68000D9FFDFF89CB39BF8DF00009077A378A286
:10B69000DFF8541A5046FCF732F9012002901BF1F2
:10B6A000AE000190CDF800A0DFF88039DFF8382E29
:10B6B00049462000FCF78AFC200002F06DF840F6B5
:10B6C000B9318842FBD209B0BDE8F08F6832000082
:10B6D000241703082DE9F04F89B0040004200890D6
:10B6E000002007902500079A0899280001F0A2FF82
:10B6F0004FF40077069700200590DFF850924D46F2
:10B70000059A0699280001F095FF04970020039000
:10B71000DFF83CB25D46039A0499280001F08AFFE5
:10B7200080250026DFF82CA2D046320029004046B2
:10B7300001F080FF5FF0000842463900584601F0F2
:10B7400079FFDFF8DCB29BF8F800009047A348A22D
:10B75000DFF8541A5046FCF7D2F8022002901BF191
:10B76000AE000190CDF800A0DFF8C038DFF8242E3D
:10B7700049462000FCF72AFC200002F00DF840F6B4
:10B78000B9318842FBD209B0BDE8F08F200000003B
:10B7900038FE0208AC1D030890FE02085C1703087F
:10B7A000E8FE0208E01D030894170308741003085C
:10B7B000141E03082DE9F04F89B0040004200890FE
:10B7C000002007902500079A0899280001F032FF11
:10B7D0004FF40077069700200590DFF870914D46F2
:10B7E000059A0699280001F025FF04970020039090
:10B7F000DFF85CB15D46039A0499280001F01AFF56
:10B8000080250026DFF84CA1D046320029004046B2
:10B8100001F010FF5FF0000842463900584601F081
:10B8200009FFDFF8FCB19BF8110100900FA310A2F3
:10B83000DFF8341A5046FCF762F8032002901BF13F
:10B84000AE000190CDF800A0DFF8E037DFF8F42D6E
:10B8500049462000FCF7BAFB200001F09DFF40F6AE
:10B86000B9318842FBD209B0BDE8F08F4300000037
:10B8700031000000CC17030860070308481E0308C6
:10B88000AC0703080860030848500308045C030879
:10B89000EC2E03082DE9F04F89B004000420089035
:10B8A000002007902500079A0899280001F0C2FEA1
:10B8B0004FF40077069700200590DFF890904D46F2
:10B8C000059A0699280001F0B5FE04970020039020
:10B8D000DFF87CB05D46039A0499280001F0AAFEC7
:10B8E00080250026DFF86CA0D046320029004046B3
:10B8F00001F0A0FE5FF0000842463900584601F012
:10B9000099FEDFF81CB19BF82A0100907EA37FA26C
:10B91000DFF8701A5046FBF7F2FF042002901BF18B
:10B92000AE000190CDF800A0DFF80037DFF8342E2C
:10B9300049462000FCF74AFB200001F02DFF40F6AD
:10B94000B9318842FBD209B0BDE8F08FE422002073
:10B95000E4240020E4300020B4D5020810D402080A
:10B96000A85F03082DE9F04F89B004000420089077
:10B97000002007902500079A0899280001F05AFE38
:10B980004FF40077069700200590DFF8B09A4D46F7
:10B99000059A0699280001F04DFE049700200390B7
:10B9A000DFF89CBA5D46039A0499280001F042FE34
:10B9B00080250026DFF88CAAD046320029004046B8
:10B9C00001F038FE5FF0000842463900584601F0A9
:10B9D00031FEDFF84CB09BF8430100904AA34BA224
:10B9E000DFF80C1B5046FBF78AFF052002901BF185
:10B9F000AE000190CDF800A0DFF83036DFF8282E39
:10BA000049462000FCF7E2FA200001F0C5FE40F6AE
:10BA1000B9318842FBD209B0BDE8F08F5813030852
:10BA2000D800002068120308D85A0308A05403085D
:10BA3000B0540308BC4F0308E45A0308F84A03084B
:10BA4000D0540308C0540308F05A0308B05F030839
:10BA50002DE9F04F89B004000420089000200790E1
:10BA60002500079A0899280001F0E4FD4FF40077BB
:10BA7000069700200590DFF8C4994D46059A06996F
:10BA8000280001F0D7FD049700200390DFF8B0B93B
:10BA90005D46039A0499280001F0CCFD802500261C
:10BAA000DFF8A0A9D04632002900404601F0C2FDCF
:10BAB0005FF0000842463900584601F0BBFDDFF850
:10BAC000DCBA9BF85C0100900FA310A2DFF8D01A3B
:10BAD0005046FBF714FF062002901BF1AE000190C8
:10BAE000CDF800A0DFF84435DFF87C2E4946200071
:10BAF000FCF76CFA200001F04FFE40F6B9318842A5
:10BB0000FBD209B0BDE8F08F430000003100000017
:10BB1000FC5A0308F0540308402703082451030883
:10BB200030EA02087C340020103600201436002051
:10BB3000584B030804180308186003082DE9F04F58
:10BB400085B0040004200490002003902500039A8F
:10BB50000499280001F06EFD4FF40077029700254C
:10BB6000DFF8D868B0462A000299404601F062FD2D
:10BB700001970027DFF8C8A8D0463A00019940464F
:10BB800001F058FD5FF080085FF00009DFF8B4B8FD
:10BB90004A464146584601F04DFD86A13000FBF76C
:10BBA000C6FD3100200001F0E8FDC0493000FBF780
:10BBB000BEFD3100200001F0E0FDB5493000FBF78B
:10BBC000B6FD3100200001F0D8FD0FF2EC1B594604
:10BBD0003000FBF7A0FD3100200001F0CEFD002079
:10BBE0000090B04BA9A2B0495046FBF779FE5146F0
:10BBF000200001F0C2FD01213000FBF7C5FD31003E
:10BC0000200001F0BAFD59463000FBF790FD3100ED
:10BC1000200001F0B2FD0D493000FBF788FD310036
:10BC2000200001F0AAFD03213000FBF7ADFD31003B
:10BC3000200001F0A2FD200001F0AEFD40F6B93178
:10BC40008842FBD205B0BDE8F08F0000D05F03084A
:10BC5000882203086E370020F8070308400A03080B
:10BC6000385103082DE9FE4F0400042002900025FE
:10BC700026002A000299300001F0DCFC4FF4007825
:10BC8000CDF804800026DFF8B477B9463200019978
:10BC9000484601F0CFFCCDF800805FF00008DFF8E7
:10BCA000A09742460099484601F0C4FC5FF0800925
:10BCB0005FF0000ADFF88CB752464946584601F05B
:10BCC000B9FCDFF8A81A3800FBF725FD3900200081
:10BCD00001F053FD37A13800FBF71DFD39002000AE
:10BCE00001F04BFDDFF8881A3800FBF714FD39002E
:10BCF000200001F042FDCAA239002000FBF75CFFE2
:10BD0000200001F049FD40F6B9318842FBD2BDE880
:10BD1000FE8F0000704B03082DE9F84F88B0040037
:10BD200004200790002006902500069A0799280015
:10BD300001F080FC4FF40078CDF8148000200490CE
:10BD4000DFF8F8A65546049A0599280001F072FC20
:10BD5000CDF80C800025DFF8E8B65E462A0003998E
:10BD6000300001F067FC80260027DFF8D8963A0003
:10BD70003100484601F05EFC5FF000094A4641464A
:10BD8000584601F057FC00200290A7480190A4A05B
:10BD90000090A64BDFF89C2651462000FBF7DCFF05
:10BDA000200001F0F9FC40F6B9318842FBD209B01D
:10BDB000BDE8F08F68330000683400005055030878
:10BDC0007C1E030860550308FC450308E045030892
:10BDD000E4380308440803082DE9F04F89B0040053
:10BDE00004200890002007902500079A0899280051
:10BDF00001F020FC4FF40077069700200590DFF853
:10BE00003C964D46059A0699280001F013FC0497CC
:10BE100000200390DFF828B65D46039A04992800B5
:10BE200001F008FC80250026DFF818A6D046320075
:10BE30002900404601F0FEFB5FF000084246390051
:10BE4000584601F0F7FBDFF854B79BF8DF0000908D
:10BE500074A30EA2A4495046FBF751FD01200290A5
:10BE60001BF1AE000190CDF800A0704BDFF87826F2
:10BE700049462000FBF770FF200001F08DFC40F6E2
:10BE8000B9318842FBD209B0BDE8F08F3100000023
:10BE9000C85F030862370020884B0308B8220308F4
:10BEA00018460308142F030870550308C05F0308E1
:10BEB0002DE9F04F89B0040004200890002007907D
:10BEC0002500079A0899280001F0B4FB4FF4007789
:10BED000069700200590DFF864954D46059A06996F
:10BEE000280001F0A7FB049700200390DFF850B56D
:10BEF0005D46039A0499280001F09CFB80250026EA
:10BF0000DFF840A5D04632002900404601F092FB00
:10BF10005FF0000842463900584601F08BFBDFF81D
:10BF20007CB69BF8F80000903EA39EA29E49504626
:10BF3000FBF7E5FC022002901BF1AE000190CDF86A
:10BF400000A03A4BDFF84C2649462000FBF704FFDF
:10BF5000200001F021FC40F6B9318842FBD209B043
:10BF6000BDE8F08F6C270308E82203082DE9F04FA5
:10BF700089B0040004200890002007902500079A4B
:10BF80000899280001F056FB4FF40077069700202F
:10BF90000590DFF8A8944D46059A0699280001F00F
:10BFA00049FB049700200390DFF894B45D46039AA0
:10BFB0000499280001F03EFB80250026DFF884A4C8
:10BFC000D04632002900404601F034FB5FF0000803
:10BFD00042463900584601F02DFBDFF8C0B59BF80A
:10BFE000110100900FA36FA29F495046FBF787FCF9
:10BFF000032002901BF1AE000190CDF800A00B4B86
:10C00000DFF8402649462000FBF7A6FE200001F09D
:10C01000C3FB40F6B9318842FBD209B0BDE8F08FCE
:10C020002000000043000000860100202860030873
:10C030002DE9F04F89B004000420089000200790FB
:10C040002500079A0899280001F0F4FA4FF40077C8
:10C05000069700200590DFF8E4934D46059A06996F
:10C06000280001F0E7FA049700200390DFF8D0B32E
:10C070005D46039A0499280001F0DCFA8025002629
:10C08000DFF8C0A3D04632002900404601F0D2FAC2
:10C090005FF0000842463900584601F0CBFADFF85D
:10C0A000FCB49BF82A0100906EA33EA2B54950460D
:10C0B000FBF725FC042002901BF1AE000190CDF8A7
:10C0C00000A0DFF8743ADFF89C2649462000FBF711
:10C0D00043FE200001F060FB40F6B9318842FBD2FC
:10C0E00009B0BDE8F08F0000306003082DE9F04F83
:10C0F00089B0040004200890002007902500079ACA
:10C100000899280001F096FA4FF40077069700206E
:10C110000590DFF828934D46059A0699280001F00E
:10C1200089FA049700200390DFF814B35D46039A60
:10C130000499280001F07EFA80250026DFF804A388
:10C14000D04632002900404601F074FA5FF0000842
:10C1500042463900584601F06DFADFF840B49BF8CA
:10C16000430100903FA30FA2E1495046FBF7C7FBF4
:10C17000052002901BF1AE000190CDF800A0DFF881
:10C18000B839DFF8A42649462000FBF7E5FD20007A
:10C1900001F002FB40F6B9318842FBD209B0BDE89C
:10C1A000F08F000031000000406003082DE9F04FDF
:10C1B00089B0040004200890002007902500079A09
:10C1C0000899280001F036FA4FF40077069700200E
:10C1D0000590DFF868924D46059A0699280001F00F
:10C1E00029FA049700200390DFF854B25D46039AC1
:10C1F0000499280001F01EFA80250026DFF844A2E9
:10C20000D04632002900404601F014FA5FF00008E1
:10C2100042463900584601F00DFADFF880B39BF82A
:10C220005C0100900FA384A2DD495046FBF767FB39
:10C23000062002901BF1AE000190CDF800A0DFF8BF
:10C24000F838DFF8242749462000FBF785FD200059
:10C2500001F0A2FA40F6B9318842FBD209B0BDE83C
:10C26000F08F000043000000506003082DE9F04FFC
:10C2700085B0040004200490002003902500039A58
:10C280000499280001F0D6F94FF4007702970025B1
:10C290006A4EB0462A000299404601F0CBF9019758
:10C2A0000027DFF89CA1D0463A000199404601F0F2
:10C2B000C1F95FF080085FF00009DFF888B14A46F5
:10C2C0004146584601F0B6F988A13000FBF72FFA35
:10C2D0003100200001F051FADFF8301A3000FBF78E
:10C2E00026FA3100200001F048FADFF8241A300065
:10C2F000FBF71DFA3100200001F03FFA0FF2982BF6
:10C3000059463000FBF707FA3100200001F035FAFA
:10C3100000200090DFF84C3B47A2DFF84C1B504652
:10C32000FBF7DEFA5146200001F027FA0121300028
:10C33000FBF72AFA3100200001F01FFA59463000BD
:10C34000FBF7F5F93100200001F017FADFF8D81DEE
:10C350003000FBF7ECF93100200001F00EFA032168
:10C360003000FBF711FA3100200001F006FA20003E
:10C3700001F012FA40F6B9318842FBD205B0BDE8AF
:10C38000F08F0000606003082DE9FE4F04000420D8
:10C390000290002526002A000299300001F04AF997
:10C3A0004FF40078CDF804800026244FB9463200BF
:10C3B0000199484601F03EF9CDF800805FF0000891
:10C3C000DFF87C9042460099484601F033F95FF06F
:10C3D00080095FF0000ADFF86CB0524649465846C3
:10C3E00001F028F9DFF8841A3800FBF794F93900D6
:10C3F000200001F0C2F93DA13800FBF78CF93900AB
:10C40000200001F0BAF9DA493800FBF784F9390065
:10C41000200001F0B2F9D2A239002000FBF76FFB37
:10C42000200001F0B9F940F6B9318842FBD2BDE8ED
:10C43000FE8F00002060030831000000E42200208D
:10C44000E4240020E43000202DE9F84F88B00400F7
:10C4500004200790002006902500069A07992800DE
:10C4600001F0E8F84FF40078CDF814800020049033
:10C47000DFF8FCA95546049A0599280001F0DAF87E
:10C48000CDF80C800025DFF8ECB95E462A00039950
:10C49000300001F0CFF880260027DFF8DC993A0061
:10C4A0003100484601F0C6F85FF000094A464146AF
:10C4B000584601F0BFF807200290DFF8C00901904C
:10C4C000A9A00090DFF87036D6A251462000FBF7F5
:10C4D0007DFD200001F060F940F6B9318842FBD2C1
:10C4E00009B0BDE8F08F0000386003086833000031
:10C4F000706003082DE9F84F88B00400042007900D
:10C50000002006902500069A0799280001F092F86D
:10C510004FF40078CDF8148000200490DFF850A983
:10C520005546049A0599280001F084F8CDF80C804E
:10C530000025DFF840B95E462A000399300001F07B
:10C5400079F880260027DFF830993A003100484614
:10C5500001F070F85FF000094A464146584601F084
:10C5600069F808200290DFF8140901907EA000907D
:10C57000DFF8C435D4A251462000FBF727FD200088
:10C5800001F00AF940F6B9318842FBD209B0BDE8A2
:10C59000F08F00004860030868340000D8000020D5
:10C5A000806003082DE9F84F88B00400042007904C
:10C5B000002006902500069A0799280001F03AF815
:10C5C0004FF40078CDF8148000200490DFF8A0A884
:10C5D0005546049A0599280001F02CF8CDF80C80F6
:10C5E0000025DFF890B85E462A000399300001F07C
:10C5F00021F880260027DFF880983A00310048466D
:10C6000001F018F85FF000094A464146584601F02B
:10C6100011F809200290DFF86408019052A0009000
:10C62000DFF81435D1A251462000FBF7CFFC2000E3
:10C6300001F0B2F840F6B9318842FBD209B0BDE84A
:10C64000F08F0000586003082DE9F04F85B004001A
:10C6500004200490002003902500039A04992800E8
:10C6600000F0E8FF4FF4007702970025DFF800683C
:10C67000B0462A000299404600F0DCFF01970027EF
:10C68000DFF8F0A7D0463A000199404600F0D2FF0B
:10C690005FF080085FF00009DFF8DCB74A464146EA
:10C6A000584600F0C7FFB2A13000FBF740F8310058
:10C6B000200001F062F8DFF854163000FBF737F87D
:10C6C0003100200001F059F8DFF844163000FBF784
:10C6D0002EF83100200001F050F80FF2982B594647
:10C6E0003000FBF718F83100200001F046F8002078
:10C6F0000090DFF87037A0A2DFF83C1A5046FBF735
:10C70000EFF85146200001F038F801213000FBF726
:10C710003BF83100200001F030F859463000FBF7BB
:10C7200006F83100200001F028F8DFF8C81D3000BD
:10C73000FAF7FDFF3100200001F01FF8032130005F
:10C74000FBF722F83100200001F017F8200001F07B
:10C7500023F840F6B9318842FBD205B0BDE8F08F2E
:10C76000200000006860030800000000982703080C
:10C7700030EA02082DE9FE4F040004200290002553
:10C7800026002A000299300000F054FF4FF4007890
:10C79000CDF804800026DFF8D876B946320001993A
:10C7A000484600F047FFCDF800805FF00008DFF852
:10C7B000C49642460099484600F03CFF5FF080096D
:10C7C0005FF0000ADFF8B0B652464946584600F01E
:10C7D00031FFDFF898163800FAF79DFF3900200086
:10C7E00000F0CBFF62A13800FAF795FF3900200076
:10C7F00000F0C3FFDFF8081B3800FAF78CFF3900A0
:10C80000200000F0BAFFC9A239002000FBF7D4F9DC
:10C81000200000F0C1FF40F6B9318842FBD2BDE8EC
:10C82000FE8F0000D09F3100786003082DE9F84F9B
:10C8300088B0040004200790002006902500069A86
:10C840000799280000F0F6FE4FF40078CDF8148028
:10C8500000200490DFF818A65546049A0599280090
:10C8600000F0E8FECDF80C800025DFF808B65E4643
:10C870002A000399300000F0DDFE80260027DFF853
:10C88000F8953A003100484600F0D4FE5FF0000908
:10C890004A464146584600F0CDFE07200290DFF898
:10C8A000DC050190A2A00090A34BA2A2514620005B
:10C8B000FBF752FA200000F06FFF40F6B9318842D2
:10C8C000FBD209B0BDE8F08FD09F32002DE9F84FC0
:10C8D00088B0040004200790002006902500069AE6
:10C8E0000799280000F0A6FE4FF40078CDF81480D8
:10C8F00000200490DFF878A55546049A0599280091
:10C9000000F098FECDF80C800025DFF868B55E4693
:10C910002A000399300000F08DFE80260027DFF802
:10C9200058953A003100484600F084FE5FF0000957
:10C930004A464146584600F07DFE08200290DFF846
:10C940003C0501907AA000907B4BC6A25146200086
:10C95000FBF702FA200000F01FFF40F6B9318842D1
:10C96000FBD209B0BDE8F08F88600308D09F330088
:10C970006833000068340000310000002DE9F84FF2
:10C9800088B0040004200790002006902500069A35
:10C990000799280000F04EFE4FF40078CDF814807F
:10C9A00000200490DFF8C8A45546049A0599280091
:10C9B00000F040FECDF80C800025DFF8B8B45E46EC
:10C9C0002A000399300000F035FE80260027DFF8AA
:10C9D000A8943A003100484600F02CFE5FF00009B0
:10C9E0004A464146584600F025FE09200290DFF8ED
:10C9F0008C0401904EA000904F4BC0A251462000E5
:10CA0000FBF7AAF9200000F0C7FE40F6B9318842D2
:10CA1000FBD209B0BDE8F08F2DE9F04F85B00400DE
:10CA200004200490002003902500039A0499280014
:10CA300000F000FE4FF4007702970025DFF8306425
:10CA4000B0462A000299404600F0F4FD0197002705
:10CA5000DFF820A4D0463A000199404600F0EAFDF4
:10CA60005FF080085FF00009DFF80CB44A464146E9
:10CA7000584600F0DFFDA2A13000FAF758FE310061
:10CA8000200000F07AFEA1493000FAF750FE310094
:10CA9000200000F072FE9E493000FAF748FE310097
:10CAA000200000F06AFE0FF25C2B59463000FAF7C6
:10CAB00032FE3100200000F060FE00200090E94BC3
:10CAC00091A2DFF8441A5046FAF70AFF51462000B7
